{"abi":[{"type":"constructor","inputs":[],"stateMutability":"nonpayable"},{"type":"function","name":"acceptTransfer","inputs":[{"name":"transferId","type":"uint256","internalType":"uint256"}],"outputs":[],"stateMutability":"nonpayable"},{"type":"function","name":"addressToUserId","inputs":[{"name":"","type":"address","internalType":"address"}],"outputs":[{"name":"","type":"uint256","internalType":"uint256"}],"stateMutability":"view"},{"type":"function","name":"admin","inputs":[],"outputs":[{"name":"","type":"address","internalType":"address"}],"stateMutability":"view"},{"type":"function","name":"changeStatusUser","inputs":[{"name":"userAddress","type":"address","internalType":"address"},{"name":"newStatus","type":"uint8","internalType":"enum SupplyChainTracker.UserStatus"}],"outputs":[],"stateMutability":"nonpayable"},{"type":"function","name":"createToken","inputs":[{"name":"name","type":"string","internalType":"string"},{"name":"totalSupply","type":"uint256","internalType":"uint256"},{"name":"features","type":"string","internalType":"string"},{"name":"parentId","type":"uint256","internalType":"uint256"}],"outputs":[],"stateMutability":"nonpayable"},{"type":"function","name":"getToken","inputs":[{"name":"tokenId","type":"uint256","internalType":"uint256"}],"outputs":[{"name":"id","type":"uint256","internalType":"uint256"},{"name":"creator","type":"address","internalType":"address"},{"name":"name","type":"string","internalType":"string"},{"name":"totalSupply","type":"uint256","internalType":"uint256"},{"name":"parentId","type":"uint256","internalType":"uint256"},{"name":"dateCreated","type":"uint256","internalType":"uint256"},{"name":"balance","type":"uint256","internalType":"uint256"}],"stateMutability":"view"},{"type":"function","name":"getTokenBalance","inputs":[{"name":"tokenId","type":"uint256","internalType":"uint256"},{"name":"user","type":"address","internalType":"address"}],"outputs":[{"name":"","type":"uint256","internalType":"uint256"}],"stateMutability":"view"},{"type":"function","name":"getUserInfo","inputs":[{"name":"userAddress","type":"address","internalType":"address"}],"outputs":[{"name":"","type":"tuple","internalType":"struct SupplyChainTracker.User","components":[{"name":"id","type":"uint256","internalType":"uint256"},{"name":"userAddress","type":"address","internalType":"address"},{"name":"role","type":"bytes32","internalType":"bytes32"},{"name":"status","type":"uint8","internalType":"enum SupplyChainTracker.UserStatus"}]}],"stateMutability":"view"},{"type":"function","name":"getUserTokens","inputs":[{"name":"user","type":"address","internalType":"address"}],"outputs":[{"name":"","type":"uint256[]","internalType":"uint256[]"}],"stateMutability":"view"},{"type":"function","name":"getUserTransfers","inputs":[{"name":"user","type":"address","internalType":"address"}],"outputs":[{"name":"","type":"uint256[]","internalType":"uint256[]"}],"stateMutability":"view"},{"type":"function","name":"nextTokenId","inputs":[],"outputs":[{"name":"","type":"uint256","internalType":"uint256"}],"stateMutability":"view"},{"type":"function","name":"nextTransferId","inputs":[],"outputs":[{"name":"","type":"uint256","internalType":"uint256"}],"stateMutability":"view"},{"type":"function","name":"nextUserId","inputs":[],"outputs":[{"name":"","type":"uint256","internalType":"uint256"}],"stateMutability":"view"},{"type":"function","name":"rejectTransfer","inputs":[{"name":"transferId","type":"uint256","internalType":"uint256"}],"outputs":[],"stateMutability":"nonpayable"},{"type":"function","name":"requestUserRole","inputs":[{"name":"role","type":"bytes32","internalType":"bytes32"}],"outputs":[],"stateMutability":"nonpayable"},{"type":"function","name":"tokens","inputs":[{"name":"","type":"uint256","internalType":"uint256"}],"outputs":[{"name":"id","type":"uint256","internalType":"uint256"},{"name":"creator","type":"address","internalType":"address"},{"name":"name","type":"string","internalType":"string"},{"name":"totalSupply","type":"uint256","internalType":"uint256"},{"name":"features","type":"string","internalType":"string"},{"name":"parentId","type":"uint256","internalType":"uint256"},{"name":"dateCreated","type":"uint256","internalType":"uint256"}],"stateMutability":"view"},{"type":"function","name":"transfer","inputs":[{"name":"to","type":"address","internalType":"address"},{"name":"tokenId","type":"uint256","internalType":"uint256"},{"name":"amount","type":"uint256","internalType":"uint256"}],"outputs":[],"stateMutability":"nonpayable"},{"type":"function","name":"transfers","inputs":[{"name":"","type":"uint256","internalType":"uint256"}],"outputs":[{"name":"id","type":"uint256","internalType":"uint256"},{"name":"from","type":"address","internalType":"address"},{"name":"to","type":"address","internalType":"address"},{"name":"tokenId","type":"uint256","internalType":"uint256"},{"name":"dateCreated","type":"uint256","internalType":"uint256"},{"name":"amount","type":"uint256","internalType":"uint256"},{"name":"status","type":"uint8","internalType":"enum SupplyChainTracker.TransferStatus"}],"stateMutability":"view"},{"type":"function","name":"users","inputs":[{"name":"","type":"uint256","internalType":"uint256"}],"outputs":[{"name":"id","type":"uint256","internalType":"uint256"},{"name":"userAddress","type":"address","internalType":"address"},{"name":"role","type":"bytes32","internalType":"bytes32"},{"name":"status","type":"uint8","internalType":"enum SupplyChainTracker.UserStatus"}],"stateMutability":"view"},{"type":"event","name":"TokenCreated","inputs":[{"name":"tokenId","type":"uint256","indexed":true,"internalType":"uint256"},{"name":"creator","type":"address","indexed":true,"internalType":"address"},{"name":"name","type":"string","indexed":false,"internalType":"string"},{"name":"totalSupply","type":"uint256","indexed":false,"internalType":"uint256"}],"anonymous":false},{"type":"event","name":"TransferAccepted","inputs":[{"name":"transferId","type":"uint256","indexed":true,"internalType":"uint256"}],"anonymous":false},{"type":"event","name":"TransferRejected","inputs":[{"name":"transferId","type":"uint256","indexed":true,"internalType":"uint256"}],"anonymous":false},{"type":"event","name":"TransferRequested","inputs":[{"name":"transferId","type":"uint256","indexed":true,"internalType":"uint256"},{"name":"from","type":"address","indexed":true,"internalType":"address"},{"name":"to","type":"address","indexed":true,"internalType":"address"},{"name":"tokenId","type":"uint256","indexed":false,"internalType":"uint256"},{"name":"amount","type":"uint256","indexed":false,"internalType":"uint256"}],"anonymous":false},{"type":"event","name":"UserRoleRequested","inputs":[{"name":"user","type":"address","indexed":true,"internalType":"address"},{"name":"role","type":"bytes32","indexed":false,"internalType":"bytes32"}],"anonymous":false},{"type":"event","name":"UserStatusChanged","inputs":[{"name":"user","type":"address","indexed":true,"internalType":"address"},{"name":"status","type":"uint8","indexed":false,"internalType":"enum SupplyChainTracker.UserStatus"}],"anonymous":false},{"type":"error","name":"ReentrancyGuardReentrantCall","inputs":[]}],"bytecode":{"object":"0x60a06040526001805560016002556001600355348015601c575f5ffd5b5060015f819055503373ffffffffffffffffffffffffffffffffffffffff1660808173ffffffffffffffffffffffffffffffffffffffff168152505060805161365361007e5f395f8181610bc801528181611aeb015261218001526136535ff3fe608060405234801561000f575f5ffd5b506004361061011f575f3560e01c806375794a3c116100ab578063b85b381b1161006f578063b85b381b1461034a578063d67b2d0814610368578063e4b50cb814610384578063ef57e2d2146103ba578063f851a440146103ea5761011f565b806375794a3c1461028c5780638782dc00146102aa5780639377d711146102c6578063a1e6a255146102fc578063b5ffbbcc1461031a5761011f565b8063365b98b2116100f2578063365b98b2146101a757806349217ca4146101da5780634f64b2be146101f6578063519dc8d21461022c5780636386c1c71461025c5761011f565b8063095bcdb61461012357806312effc321461013f578063274fae7c1461015b578063335d341014610177575b5f5ffd5b61013d600480360381019061013891906123fc565b610408565b005b6101596004803603810190610154919061244c565b610adc565b005b6101756004803603810190610170919061244c565b610d4f565b005b610191600480360381019061018c9190612477565b6110d2565b60405161019e9190612559565b60405180910390f35b6101c160048036038101906101bc919061244c565b6112ee565b6040516101d19493929190612622565b60405180910390f35b6101f460048036038101906101ef919061268f565b611345565b005b610210600480360381019061020b919061244c565b611609565b604051610223979695949392919061272a565b60405180910390f35b61024660048036038101906102419190612477565b611772565b6040516102539190612559565b60405180910390f35b61027660048036038101906102719190612477565b61197d565b6040516102839190612825565b60405180910390f35b610294611ae3565b6040516102a1919061283e565b60405180910390f35b6102c460048036038101906102bf919061287a565b611ae9565b005b6102e060048036038101906102db919061244c565b611c88565b6040516102f397969594939291906128fe565b60405180910390f35b610304611d10565b604051610311919061283e565b60405180910390f35b610334600480360381019061032f9190612477565b611d16565b604051610341919061283e565b60405180910390f35b610352611d2b565b60405161035f919061283e565b60405180910390f35b610382600480360381019061037d91906129cc565b611d31565b005b61039e6004803603810190610399919061244c565b611fa6565b6040516103b19796959493929190612a6f565b60405180910390f35b6103d460048036038101906103cf9190612ae3565b6120e1565b6040516103e1919061283e565b60405180910390f35b6103f261217e565b6040516103ff9190612b21565b60405180910390f35b5f60075f3373ffffffffffffffffffffffffffffffffffffffff1673ffffffffffffffffffffffffffffffffffffffff1681526020019081526020015f205490505f811415801561049d575060016003811115610468576104676125af565b5b60065f8381526020019081526020015f206003015f9054906101000a900460ff16600381111561049b5761049a6125af565b5b145b6104dc576040517f08c379a00000000000000000000000000000000000000000000000000000000081526004016104d390612b84565b60405180910390fd5b6104e46121a2565b5f73ffffffffffffffffffffffffffffffffffffffff168473ffffffffffffffffffffffffffffffffffffffff161415801561054c57503373ffffffffffffffffffffffffffffffffffffffff168473ffffffffffffffffffffffffffffffffffffffff1614155b61058b576040517f08c379a000000000000000000000000000000000000000000000000000000000815260040161058290612bec565b60405180910390fd5b5f82116105cd576040517f08c379a00000000000000000000000000000000000000000000000000000000081526004016105c490612c54565b60405180910390fd5b6001548310610611576040517f08c379a000000000000000000000000000000000000000000000000000000000815260040161060890612cbc565b60405180910390fd5b5f60075f3373ffffffffffffffffffffffffffffffffffffffff1673ffffffffffffffffffffffffffffffffffffffff1681526020019081526020015f205490505f60075f8773ffffffffffffffffffffffffffffffffffffffff1673ffffffffffffffffffffffffffffffffffffffff1681526020019081526020015f205490505f81036106d5576040517f08c379a00000000000000000000000000000000000000000000000000000000081526004016106cc90612d24565b60405180910390fd5b6106f260065f8481526020019081526020015f20600201546121e6565b15610732576040517f08c379a000000000000000000000000000000000000000000000000000000000815260040161072990612d8c565b60405180910390fd5b61076460065f8481526020019081526020015f206002015460065f8481526020019081526020015f2060020154612211565b6107a3576040517f08c379a000000000000000000000000000000000000000000000000000000000815260040161079a90612df4565b60405180910390fd5b5f60045f8781526020019081526020015f20905084816007015f3373ffffffffffffffffffffffffffffffffffffffff1673ffffffffffffffffffffffffffffffffffffffff1681526020019081526020015f20541015610839576040517f08c379a000000000000000000000000000000000000000000000000000000000815260040161083090612e5c565b60405180910390fd5b84816007015f3373ffffffffffffffffffffffffffffffffffffffff1673ffffffffffffffffffffffffffffffffffffffff1681526020019081526020015f205f8282546108879190612ea7565b9250508190555084816007015f8973ffffffffffffffffffffffffffffffffffffffff1673ffffffffffffffffffffffffffffffffffffffff1681526020019081526020015f205f8282546108dc9190612eda565b925050819055505f60025f8154809291906108f690612f0d565b9190505590506040518060e001604052808281526020013373ffffffffffffffffffffffffffffffffffffffff1681526020018973ffffffffffffffffffffffffffffffffffffffff1681526020018881526020014281526020018781526020015f600281111561096a576109696125af565b5b81525060055f8381526020019081526020015f205f820151815f01556020820151816001015f6101000a81548173ffffffffffffffffffffffffffffffffffffffff021916908373ffffffffffffffffffffffffffffffffffffffff1602179055506040820151816002015f6101000a81548173ffffffffffffffffffffffffffffffffffffffff021916908373ffffffffffffffffffffffffffffffffffffffff160217905550606082015181600301556080820151816004015560a0820151816005015560c0820151816006015f6101000a81548160ff02191690836002811115610a5a57610a596125af565b5b02179055509050508773ffffffffffffffffffffffffffffffffffffffff163373ffffffffffffffffffffffffffffffffffffffff16827fc8262dc04f8f56abc884e1f58ca17a373610558a6cebc5e927b9e1c4668e5fdf8a8a604051610ac2929190612f54565b60405180910390a450505050610ad6612312565b50505050565b610ae46121a2565b5f60055f8381526020019081526020015f2090505f6002811115610b0b57610b0a6125af565b5b816006015f9054906101000a900460ff166002811115610b2e57610b2d6125af565b5b14610b6e576040517f08c379a0000000000000000000000000000000000000000000000000000000008152600401610b6590612fc5565b60405180910390fd5b806002015f9054906101000a900473ffffffffffffffffffffffffffffffffffffffff1673ffffffffffffffffffffffffffffffffffffffff163373ffffffffffffffffffffffffffffffffffffffff161480610c1657507f000000000000000000000000000000000000000000000000000000000000000073ffffffffffffffffffffffffffffffffffffffff163373ffffffffffffffffffffffffffffffffffffffff16145b610c55576040517f08c379a0000000000000000000000000000000000000000000000000000000008152600401610c4c9061302d565b60405180910390fd5b5f60045f836003015481526020019081526020015f2090508160050154816007015f846001015f9054906101000a900473ffffffffffffffffffffffffffffffffffffffff1673ffffffffffffffffffffffffffffffffffffffff1673ffffffffffffffffffffffffffffffffffffffff1681526020019081526020015f205f828254610ce29190612eda565b925050819055506002826006015f6101000a81548160ff02191690836002811115610d1057610d0f6125af565b5b0217905550827f1f4f8a94e17d25044030f376d297769c8f9a1a2a0616e36b498a1e7370b5863f60405160405180910390a25050610d4c612312565b50565b5f60075f3373ffffffffffffffffffffffffffffffffffffffff1673ffffffffffffffffffffffffffffffffffffffff1681526020019081526020015f205490505f8114158015610de4575060016003811115610daf57610dae6125af565b5b60065f8381526020019081526020015f206003015f9054906101000a900460ff166003811115610de257610de16125af565b5b145b610e23576040517f08c379a0000000000000000000000000000000000000000000000000000000008152600401610e1a90612b84565b60405180910390fd5b5f60055f8481526020019081526020015f2090505f6002811115610e4a57610e496125af565b5b816006015f9054906101000a900460ff166002811115610e6d57610e6c6125af565b5b14610ead576040517f08c379a0000000000000000000000000000000000000000000000000000000008152600401610ea490612fc5565b60405180910390fd5b806002015f9054906101000a900473ffffffffffffffffffffffffffffffffffffffff1673ffffffffffffffffffffffffffffffffffffffff163373ffffffffffffffffffffffffffffffffffffffff1614610f3e576040517f08c379a0000000000000000000000000000000000000000000000000000000008152600401610f3590613095565b60405180910390fd5b5f60075f836002015f9054906101000a900473ffffffffffffffffffffffffffffffffffffffff1673ffffffffffffffffffffffffffffffffffffffff1673ffffffffffffffffffffffffffffffffffffffff1681526020019081526020015f2054905061103460065f60075f866001015f9054906101000a900473ffffffffffffffffffffffffffffffffffffffff1673ffffffffffffffffffffffffffffffffffffffff1673ffffffffffffffffffffffffffffffffffffffff1681526020019081526020015f205481526020019081526020015f206002015460065f8481526020019081526020015f2060020154612211565b611073576040517f08c379a000000000000000000000000000000000000000000000000000000000815260040161106a90612df4565b60405180910390fd5b6001826006015f6101000a81548160ff0219169083600281111561109a576110996125af565b5b0217905550837f91dd4234b45d77221e6eca52c141569a6d0f3b3ffe9b8a18fe8b9aafbc64b44b60405160405180910390a250505050565b60605f60016002546110e49190612ea7565b67ffffffffffffffff8111156110fd576110fc6130b3565b5b60405190808252806020026020018201604052801561112b5781602001602082028036833780820191505090505b5090505f5f90505f600190505b600254811015611241575f60055f8381526020019081526020015f2090508573ffffffffffffffffffffffffffffffffffffffff16816001015f9054906101000a900473ffffffffffffffffffffffffffffffffffffffff1673ffffffffffffffffffffffffffffffffffffffff16148061120157508573ffffffffffffffffffffffffffffffffffffffff16816002015f9054906101000a900473ffffffffffffffffffffffffffffffffffffffff1673ffffffffffffffffffffffffffffffffffffffff16145b15611233578184848061121390612f0d565b955081518110611226576112256130e0565b5b6020026020010181815250505b508080600101915050611138565b505f8167ffffffffffffffff81111561125d5761125c6130b3565b5b60405190808252806020026020018201604052801561128b5781602001602082028036833780820191505090505b5090505f5f90505b828110156112e2578381815181106112ae576112ad6130e0565b5b60200260200101518282815181106112c9576112c86130e0565b5b6020026020010181815250508080600101915050611293565b50809350505050919050565b6006602052805f5260405f205f91509050805f015490806001015f9054906101000a900473ffffffffffffffffffffffffffffffffffffffff1690806002015490806003015f9054906101000a900460ff16905084565b5f5f1b8103611389576040517f08c379a000000000000000000000000000000000000000000000000000000000815260040161138090613157565b60405180910390fd5b5f60075f3373ffffffffffffffffffffffffffffffffffffffff1673ffffffffffffffffffffffffffffffffffffffff1681526020019081526020015f205490505f81036115145760035f8154809291906113e390612f0d565b91905055905060405180608001604052808281526020013373ffffffffffffffffffffffffffffffffffffffff1681526020018381526020015f600381111561142f5761142e6125af565b5b81525060065f8381526020019081526020015f205f820151815f01556020820151816001015f6101000a81548173ffffffffffffffffffffffffffffffffffffffff021916908373ffffffffffffffffffffffffffffffffffffffff160217905550604082015181600201556060820151816003015f6101000a81548160ff021916908360038111156114c5576114c46125af565b5b02179055509050508060075f3373ffffffffffffffffffffffffffffffffffffffff1673ffffffffffffffffffffffffffffffffffffffff1681526020019081526020015f2081905550611569565b8160065f8381526020019081526020015f20600201819055505f60065f8381526020019081526020015f206003015f6101000a81548160ff02191690836003811115611563576115626125af565b5b02179055505b3373ffffffffffffffffffffffffffffffffffffffff167f6462c5e0af9bf3a12e42a57283f899627cb117e108991e3efda5d27188cc85c1836040516115af9190613175565b60405180910390a23373ffffffffffffffffffffffffffffffffffffffff167fb3b609c7a5e504a312603e90d906d1667fd5caff0a840ad07bf5709a3ca1a0455f6040516115fd919061318e565b60405180910390a25050565b6004602052805f5260405f205f91509050805f015490806001015f9054906101000a900473ffffffffffffffffffffffffffffffffffffffff1690806002018054611653906131d4565b80601f016020809104026020016040519081016040528092919081815260200182805461167f906131d4565b80156116ca5780601f106116a1576101008083540402835291602001916116ca565b820191905f5260205f20905b8154815290600101906020018083116116ad57829003601f168201915b5050505050908060030154908060040180546116e5906131d4565b80601f0160208091040260200160405190810160405280929190818152602001828054611711906131d4565b801561175c5780601f106117335761010080835404028352916020019161175c565b820191905f5260205f20905b81548152906001019060200180831161173f57829003601f168201915b5050505050908060050154908060060154905087565b60605f600180546117839190612ea7565b67ffffffffffffffff81111561179c5761179b6130b3565b5b6040519080825280602002602001820160405280156117ca5781602001602082028036833780820191505090505b5090505f5f90505f600190505b6001548110156118d0575f60045f8381526020019081526020015f2090508573ffffffffffffffffffffffffffffffffffffffff16816001015f9054906101000a900473ffffffffffffffffffffffffffffffffffffffff1673ffffffffffffffffffffffffffffffffffffffff16148061189057505f816007015f8873ffffffffffffffffffffffffffffffffffffffff1673ffffffffffffffffffffffffffffffffffffffff1681526020019081526020015f2054115b156118c257818484806118a290612f0d565b9550815181106118b5576118b46130e0565b5b6020026020010181815250505b5080806001019150506117d7565b505f8167ffffffffffffffff8111156118ec576118eb6130b3565b5b60405190808252806020026020018201604052801561191a5781602001602082028036833780820191505090505b5090505f5f90505b828110156119715783818151811061193d5761193c6130e0565b5b6020026020010151828281518110611958576119576130e0565b5b6020026020010181815250508080600101915050611922565b50809350505050919050565b61198561231b565b5f60075f8473ffffffffffffffffffffffffffffffffffffffff1673ffffffffffffffffffffffffffffffffffffffff1681526020019081526020015f205490505f8114611a905760065f8281526020019081526020015f206040518060800160405290815f8201548152602001600182015f9054906101000a900473ffffffffffffffffffffffffffffffffffffffff1673ffffffffffffffffffffffffffffffffffffffff1673ffffffffffffffffffffffffffffffffffffffff16815260200160028201548152602001600382015f9054906101000a900460ff166003811115611a7557611a746125af565b5b6003811115611a8757611a866125af565b5b81525050611adb565b60405180608001604052805f81526020015f73ffffffffffffffffffffffffffffffffffffffff1681526020015f815260200160026003811115611ad757611ad66125af565b5b8152505b915050919050565b60015481565b7f000000000000000000000000000000000000000000000000000000000000000073ffffffffffffffffffffffffffffffffffffffff163373ffffffffffffffffffffffffffffffffffffffff1614611b77576040517f08c379a0000000000000000000000000000000000000000000000000000000008152600401611b6e9061324e565b60405180910390fd5b5f60075f8473ffffffffffffffffffffffffffffffffffffffff1673ffffffffffffffffffffffffffffffffffffffff1681526020019081526020015f205490505f8103611bfa576040517f08c379a0000000000000000000000000000000000000000000000000000000008152600401611bf1906132b6565b60405180910390fd5b8160065f8381526020019081526020015f206003015f6101000a81548160ff02191690836003811115611c3057611c2f6125af565b5b02179055508273ffffffffffffffffffffffffffffffffffffffff167fb3b609c7a5e504a312603e90d906d1667fd5caff0a840ad07bf5709a3ca1a04583604051611c7b919061318e565b60405180910390a2505050565b6005602052805f5260405f205f91509050805f015490806001015f9054906101000a900473ffffffffffffffffffffffffffffffffffffffff1690806002015f9054906101000a900473ffffffffffffffffffffffffffffffffffffffff1690806003015490806004015490806005015490806006015f9054906101000a900460ff16905087565b60035481565b6007602052805f5260405f205f915090505481565b60025481565b5f60075f3373ffffffffffffffffffffffffffffffffffffffff1673ffffffffffffffffffffffffffffffffffffffff1681526020019081526020015f205490505f8114158015611dc6575060016003811115611d9157611d906125af565b5b60065f8381526020019081526020015f206003015f9054906101000a900460ff166003811115611dc457611dc36125af565b5b145b611e05576040517f08c379a0000000000000000000000000000000000000000000000000000000008152600401611dfc90612b84565b60405180910390fd5b5f8787905011611e4a576040517f08c379a0000000000000000000000000000000000000000000000000000000008152600401611e419061331e565b60405180910390fd5b5f60015f815480929190611e5d90612f0d565b9190505590505f60045f8381526020019081526020015f20905081815f018190555033816001015f6101000a81548173ffffffffffffffffffffffffffffffffffffffff021916908373ffffffffffffffffffffffffffffffffffffffff1602179055508888826002019182611ed49291906134e6565b508681600301819055508585826004019182611ef19291906134e6565b5083816005018190555042816006018190555086816007015f3373ffffffffffffffffffffffffffffffffffffffff1673ffffffffffffffffffffffffffffffffffffffff1681526020019081526020015f20819055503373ffffffffffffffffffffffffffffffffffffffff16827f463ec2a62c46678a81e23cde640446ca4b512f102bb3309cf5a3e2a4ae8314648b8b8b604051611f93939291906135ed565b60405180910390a3505050505050505050565b5f5f60605f5f5f5f5f60045f8a81526020019081526020015f209050805f0154816001015f9054906101000a900473ffffffffffffffffffffffffffffffffffffffff1682600201836003015484600501548560060154866007015f3373ffffffffffffffffffffffffffffffffffffffff1673ffffffffffffffffffffffffffffffffffffffff1681526020019081526020015f2054848054612049906131d4565b80601f0160208091040260200160405190810160405280929190818152602001828054612075906131d4565b80156120c05780601f10612097576101008083540402835291602001916120c0565b820191905f5260205f20905b8154815290600101906020018083116120a357829003601f168201915b50505050509450975097509750975097509750975050919395979092949650565b5f6001548310612126576040517f08c379a000000000000000000000000000000000000000000000000000000000815260040161211d90612cbc565b60405180910390fd5b60045f8481526020019081526020015f206007015f8373ffffffffffffffffffffffffffffffffffffffff1673ffffffffffffffffffffffffffffffffffffffff1681526020019081526020015f2054905092915050565b7f000000000000000000000000000000000000000000000000000000000000000081565b60025f54036121dd576040517f3ee5aeb500000000000000000000000000000000000000000000000000000000815260040160405180910390fd5b60025f81905550565b5f7fc0878b4b16a78e8085cba0ca02fc0924f1492924058d153153a3f286e0fd70ff82149050919050565b5f7f95329f0f598032755f454b63034035528a2f09e00bb3dde055a4f8e3f7b116838314801561226057507f992f90ffb92c5ad86f1df6829115f18aaea41d6094dadc8955c35086081a7bb982145b806122b557507f992f90ffb92c5ad86f1df6829115f18aaea41d6094dadc8955c35086081a7bb9831480156122b457507f1534e98f9dd33e3681193a0541f0c2e3d732d183dcdc630aac2b943280af42a082145b5b8061230a57507f1534e98f9dd33e3681193a0541f0c2e3d732d183dcdc630aac2b943280af42a08314801561230957507fc0878b4b16a78e8085cba0ca02fc0924f1492924058d153153a3f286e0fd70ff82145b5b905092915050565b60015f81905550565b60405180608001604052805f81526020015f73ffffffffffffffffffffffffffffffffffffffff1681526020015f81526020015f6003811115612361576123606125af565b5b81525090565b5f5ffd5b5f5ffd5b5f73ffffffffffffffffffffffffffffffffffffffff82169050919050565b5f6123988261236f565b9050919050565b6123a88161238e565b81146123b2575f5ffd5b50565b5f813590506123c38161239f565b92915050565b5f819050919050565b6123db816123c9565b81146123e5575f5ffd5b50565b5f813590506123f6816123d2565b92915050565b5f5f5f6060848603121561241357612412612367565b5b5f612420868287016123b5565b9350506020612431868287016123e8565b9250506040612442868287016123e8565b9150509250925092565b5f6020828403121561246157612460612367565b5b5f61246e848285016123e8565b91505092915050565b5f6020828403121561248c5761248b612367565b5b5f612499848285016123b5565b91505092915050565b5f81519050919050565b5f82825260208201905092915050565b5f819050602082019050919050565b6124d4816123c9565b82525050565b5f6124e583836124cb565b60208301905092915050565b5f602082019050919050565b5f612507826124a2565b61251181856124ac565b935061251c836124bc565b805f5b8381101561254c57815161253388826124da565b975061253e836124f1565b92505060018101905061251f565b5085935050505092915050565b5f6020820190508181035f83015261257181846124fd565b905092915050565b612582816123c9565b82525050565b6125918161238e565b82525050565b5f819050919050565b6125a981612597565b82525050565b7f4e487b71000000000000000000000000000000000000000000000000000000005f52602160045260245ffd5b600481106125ed576125ec6125af565b5b50565b5f8190506125fd826125dc565b919050565b5f61260c826125f0565b9050919050565b61261c81612602565b82525050565b5f6080820190506126355f830187612579565b6126426020830186612588565b61264f60408301856125a0565b61265c6060830184612613565b95945050505050565b61266e81612597565b8114612678575f5ffd5b50565b5f8135905061268981612665565b92915050565b5f602082840312156126a4576126a3612367565b5b5f6126b18482850161267b565b91505092915050565b5f81519050919050565b5f82825260208201905092915050565b8281835e5f83830152505050565b5f601f19601f8301169050919050565b5f6126fc826126ba565b61270681856126c4565b93506127168185602086016126d4565b61271f816126e2565b840191505092915050565b5f60e08201905061273d5f83018a612579565b61274a6020830189612588565b818103604083015261275c81886126f2565b905061276b6060830187612579565b818103608083015261277d81866126f2565b905061278c60a0830185612579565b61279960c0830184612579565b98975050505050505050565b6127ae8161238e565b82525050565b6127bd81612597565b82525050565b6127cc81612602565b82525050565b608082015f8201516127e65f8501826124cb565b5060208201516127f960208501826127a5565b50604082015161280c60408501826127b4565b50606082015161281f60608501826127c3565b50505050565b5f6080820190506128385f8301846127d2565b92915050565b5f6020820190506128515f830184612579565b92915050565b60048110612863575f5ffd5b50565b5f8135905061287481612857565b92915050565b5f5f604083850312156128905761288f612367565b5b5f61289d858286016123b5565b92505060206128ae85828601612866565b9150509250929050565b600381106128c9576128c86125af565b5b50565b5f8190506128d9826128b8565b919050565b5f6128e8826128cc565b9050919050565b6128f8816128de565b82525050565b5f60e0820190506129115f83018a612579565b61291e6020830189612588565b61292b6040830188612588565b6129386060830187612579565b6129456080830186612579565b61295260a0830185612579565b61295f60c08301846128ef565b98975050505050505050565b5f5ffd5b5f5ffd5b5f5ffd5b5f5f83601f84011261298c5761298b61296b565b5b8235905067ffffffffffffffff8111156129a9576129a861296f565b5b6020830191508360018202830111156129c5576129c4612973565b5b9250929050565b5f5f5f5f5f5f608087890312156129e6576129e5612367565b5b5f87013567ffffffffffffffff811115612a0357612a0261236b565b5b612a0f89828a01612977565b96509650506020612a2289828a016123e8565b945050604087013567ffffffffffffffff811115612a4357612a4261236b565b5b612a4f89828a01612977565b93509350506060612a6289828a016123e8565b9150509295509295509295565b5f60e082019050612a825f83018a612579565b612a8f6020830189612588565b8181036040830152612aa181886126f2565b9050612ab06060830187612579565b612abd6080830186612579565b612aca60a0830185612579565b612ad760c0830184612579565b98975050505050505050565b5f5f60408385031215612af957612af8612367565b5b5f612b06858286016123e8565b9250506020612b17858286016123b5565b9150509250929050565b5f602082019050612b345f830184612588565b92915050565b7f4e6f7420617070726f76656400000000000000000000000000000000000000005f82015250565b5f612b6e600c836126c4565b9150612b7982612b3a565b602082019050919050565b5f6020820190508181035f830152612b9b81612b62565b9050919050565b7f496e76616c696420726563697069656e740000000000000000000000000000005f82015250565b5f612bd66011836126c4565b9150612be182612ba2565b602082019050919050565b5f6020820190508181035f830152612c0381612bca565b9050919050565b7f416d6f756e74206d757374206265203e203000000000000000000000000000005f82015250565b5f612c3e6012836126c4565b9150612c4982612c0a565b602082019050919050565b5f6020820190508181035f830152612c6b81612c32565b9050919050565b7f546f6b656e20646f6573206e6f742065786973740000000000000000000000005f82015250565b5f612ca66014836126c4565b9150612cb182612c72565b602082019050919050565b5f6020820190508181035f830152612cd381612c9a565b9050919050565b7f526563697069656e74206e6f74207265676973746572656400000000000000005f82015250565b5f612d0e6018836126c4565b9150612d1982612cda565b602082019050919050565b5f6020820190508181035f830152612d3b81612d02565b9050919050565b7f436f6e73756d65722063616e6e6f74207472616e7366657200000000000000005f82015250565b5f612d766018836126c4565b9150612d8182612d42565b602082019050919050565b5f6020820190508181035f830152612da381612d6a565b9050919050565b7f496e76616c696420726f6c65207472616e736974696f6e0000000000000000005f82015250565b5f612dde6017836126c4565b9150612de982612daa565b602082019050919050565b5f6020820190508181035f830152612e0b81612dd2565b9050919050565b7f496e73756666696369656e742062616c616e63650000000000000000000000005f82015250565b5f612e466014836126c4565b9150612e5182612e12565b602082019050919050565b5f6020820190508181035f830152612e7381612e3a565b9050919050565b7f4e487b71000000000000000000000000000000000000000000000000000000005f52601160045260245ffd5b5f612eb1826123c9565b9150612ebc836123c9565b9250828203905081811115612ed457612ed3612e7a565b5b92915050565b5f612ee4826123c9565b9150612eef836123c9565b9250828201905080821115612f0757612f06612e7a565b5b92915050565b5f612f17826123c9565b91507fffffffffffffffffffffffffffffffffffffffffffffffffffffffffffffffff8203612f4957612f48612e7a565b5b600182019050919050565b5f604082019050612f675f830185612579565b612f746020830184612579565b9392505050565b7f4e6f742070656e64696e670000000000000000000000000000000000000000005f82015250565b5f612faf600b836126c4565b9150612fba82612f7b565b602082019050919050565b5f6020820190508181035f830152612fdc81612fa3565b9050919050565b7f4e6f7420617574686f72697a65640000000000000000000000000000000000005f82015250565b5f613017600e836126c4565b915061302282612fe3565b602082019050919050565b5f6020820190508181035f8301526130448161300b565b9050919050565b7f4e6f7420726563697069656e74000000000000000000000000000000000000005f82015250565b5f61307f600d836126c4565b915061308a8261304b565b602082019050919050565b5f6020820190508181035f8301526130ac81613073565b9050919050565b7f4e487b71000000000000000000000000000000000000000000000000000000005f52604160045260245ffd5b7f4e487b71000000000000000000000000000000000000000000000000000000005f52603260045260245ffd5b7f496e76616c696420726f6c6500000000000000000000000000000000000000005f82015250565b5f613141600c836126c4565b915061314c8261310d565b602082019050919050565b5f6020820190508181035f83015261316e81613135565b9050919050565b5f6020820190506131885f8301846125a0565b92915050565b5f6020820190506131a15f830184612613565b92915050565b7f4e487b71000000000000000000000000000000000000000000000000000000005f52602260045260245ffd5b5f60028204905060018216806131eb57607f821691505b6020821081036131fe576131fd6131a7565b5b50919050565b7f4e6f742061646d696e00000000000000000000000000000000000000000000005f82015250565b5f6132386009836126c4565b915061324382613204565b602082019050919050565b5f6020820190508181035f8301526132658161322c565b9050919050565b7f55736572206e6f7420666f756e640000000000000000000000000000000000005f82015250565b5f6132a0600e836126c4565b91506132ab8261326c565b602082019050919050565b5f6020820190508181035f8301526132cd81613294565b9050919050565b7f4e616d6520656d707479000000000000000000000000000000000000000000005f82015250565b5f613308600a836126c4565b9150613313826132d4565b602082019050919050565b5f6020820190508181035f830152613335816132fc565b9050919050565b5f82905092915050565b5f819050815f5260205f209050919050565b5f6020601f8301049050919050565b5f82821b905092915050565b5f600883026133a27fffffffffffffffffffffffffffffffffffffffffffffffffffffffffffffffff82613367565b6133ac8683613367565b95508019841693508086168417925050509392505050565b5f819050919050565b5f6133e76133e26133dd846123c9565b6133c4565b6123c9565b9050919050565b5f819050919050565b613400836133cd565b61341461340c826133ee565b848454613373565b825550505050565b5f5f905090565b61342b61341c565b6134368184846133f7565b505050565b5b818110156134595761344e5f82613423565b60018101905061343c565b5050565b601f82111561349e5761346f81613346565b61347884613358565b81016020851015613487578190505b61349b61349385613358565b83018261343b565b50505b505050565b5f82821c905092915050565b5f6134be5f19846008026134a3565b1980831691505092915050565b5f6134d683836134af565b9150826002028217905092915050565b6134f0838361333c565b67ffffffffffffffff811115613509576135086130b3565b5b61351382546131d4565b61351e82828561345d565b5f601f83116001811461354b575f8415613539578287013590505b61354385826134cb565b8655506135aa565b601f19841661355986613346565b5f5b828110156135805784890135825560018201915060208501945060208101905061355b565b8683101561359d5784890135613599601f8916826134af565b8355505b6001600288020188555050505b50505050505050565b828183375f83830152505050565b5f6135cc83856126c4565b93506135d98385846135b3565b6135e2836126e2565b840190509392505050565b5f6040820190508181035f8301526136068185876135c1565b90506136156020830184612579565b94935050505056fea26469706673582212203bead668f4afafc461b8ee5a480fa4e808cc2447cab32bc2057d2d7fb783416064736f6c634300081e0033","linkReferences":{}},"methodIdentifiers":{"acceptTransfer(uint256)":"274fae7c","addressToUserId(address)":"b5ffbbcc","admin()":"f851a440","changeStatusUser(address,uint8)":"8782dc00","createToken(string,uint256,string,uint256)":"d67b2d08","getToken(uint256)":"e4b50cb8","getTokenBalance(uint256,address)":"ef57e2d2","getUserInfo(address)":"6386c1c7","getUserTokens(address)":"519dc8d2","getUserTransfers(address)":"335d3410","nextTokenId()":"75794a3c","nextTransferId()":"b85b381b","nextUserId()":"a1e6a255","rejectTransfer(uint256)":"12effc32","requestUserRole(bytes32)":"49217ca4","tokens(uint256)":"4f64b2be","transfer(address,uint256,uint256)":"095bcdb6","transfers(uint256)":"9377d711","users(uint256)":"365b98b2"},"id":1}